Component: ARM Compiler 5.05 update 2 (build 169) Tool: armlink [4d0f33]

==============================================================================

Section Cross References

    startup_stm32l452xx.o(RESET) refers to startup_stm32l452xx.o(STACK) for __initial_sp
    startup_stm32l452xx.o(RESET) refers to startup_stm32l452xx.o(.text) for Reset_Handler
    startup_stm32l452xx.o(RESET) refers to stm32l4xx_it.o(i.NMI_Handler) for NMI_Handler
    startup_stm32l452xx.o(RESET) refers to stm32l4xx_it.o(i.HardFault_Handler) for HardFault_Handler
    startup_stm32l452xx.o(RESET) refers to stm32l4xx_it.o(i.MemManage_Handler) for MemManage_Handler
    startup_stm32l452xx.o(RESET) refers to stm32l4xx_it.o(i.BusFault_Handler) for BusFault_Handler
    startup_stm32l452xx.o(RESET) refers to stm32l4xx_it.o(i.UsageFault_Handler) for UsageFault_Handler
    startup_stm32l452xx.o(RESET) refers to stm32l4xx_it.o(i.SVC_Handler) for SVC_Handler
    startup_stm32l452xx.o(RESET) refers to stm32l4xx_it.o(i.DebugMon_Handler) for DebugMon_Handler
    startup_stm32l452xx.o(RESET) refers to stm32l4xx_it.o(i.PendSV_Handler) for PendSV_Handler
    startup_stm32l452xx.o(RESET) refers to stm32l4xx_it.o(i.SysTick_Handler) for SysTick_Handler
    startup_stm32l452xx.o(RESET) refers to stm32l4xx_it.o(i.DMA1_Channel6_IRQHandler) for DMA1_Channel6_IRQHandler
    startup_stm32l452xx.o(RESET) refers to stm32l4xx_it.o(i.USART2_IRQHandler) for USART2_IRQHandler
    startup_stm32l452xx.o(.text) refers to system_stm32l4xx.o(i.SystemInit) for SystemInit
    startup_stm32l452xx.o(.text) refers to entry.o(.ARM.Collect$$$$00000000) for __main
    retarget.o(i._ttywrch) refers to retarget.o(i.sendchar) for sendchar
    retarget.o(i.fputc) refers to retarget.o(i.sendchar) for sendchar
    retarget.o(i.sendchar) refers to stm32l4xx_hal_uart.o(i.HAL_UART_Transmit) for HAL_UART_Transmit
==============================================================================

Removing Unused input sections from the image.

    Removing startup_stm32l452xx.o(HEAP), (512 bytes).
    Removing retarget.o(.rev16_text), (4 bytes).
    Removing retarget.o(.revsh_text), (4 bytes).
    Removing retarget.o(.rrx_text), (6 bytes).
    Removing retarget.o(i._sys_exit), (2 bytes).
    Removing retarget.o(i._ttywrch), (4 bytes).
    Removing retarget.o(i.ferror), (6 bytes).
    Removing retarget.o(i.fgetc), (4 bytes).
    Removing retarget.o(.data), (4 bytes).
    Removing main.o(.rev16_text), (4 bytes).
    Removing main.o(.revsh_text), (4 bytes).
    Removing main.o(.rrx_text), (6 bytes).
    Removing gpio.o(.rev16_text), (4 bytes).
    Removing gpio.o(.revsh_text), (4 bytes).
    Removing gpio.o(.rrx_text), (6 bytes).
    Removing dma.o(.rev16_text), (4 bytes).
    Removing dma.o(.revsh_text), (4 bytes).
    Removing dma.o(.rrx_text), (6 bytes).
==============================================================================

Image Symbol Table

    Local Symbols

    Symbol Name                              Value     Ov Type        Size  Object(Section)

    ../Drivers/STM32L4xx_HAL_Driver/Src/stm32l4xx_hal.c 0x00000000   Number         0  stm32l4xx_hal.o ABSOLUTE
    ../Drivers/STM32L4xx_HAL_Driver/Src/stm32l4xx_hal_cortex.c 0x00000000   Number         0  stm32l4xx_hal_cortex.o ABSOLUTE
    ../Drivers/STM32L4xx_HAL_Driver/Src/stm32l4xx_hal_dma.c 0x00000000   Number         0  stm32l4xx_hal_dma.o ABSOLUTE
    ../Drivers/STM32L4xx_HAL_Driver/Src/stm32l4xx_hal_dma_ex.c 0x00000000   Number         0  stm32l4xx_hal_dma_ex.o ABSOLUTE
    ../Drivers/STM32L4xx_HAL_Driver/Src/stm32l4xx_hal_exti.c 0x00000000   Number         0  stm32l4xx_hal_exti.o ABSOLUTE
    ../Drivers/STM32L4xx_HAL_Driver/Src/stm32l4xx_hal_flash.c 0x00000000   Number         0  stm32l4xx_hal_flash.o ABSOLUTE
    ../Drivers/STM32L4xx_HAL_Driver/Src/stm32l4xx_hal_flash_ex.c 0x00000000   Number         0  stm32l4xx_hal_flash_ex.o ABSOLUTE
    ../Drivers/STM32L4xx_HAL_Driver/Src/stm32l4xx_hal_flash_ramfunc.c 0x00000000   Number         0  stm32l4xx_hal_flash_ramfunc.o ABSOLUTE
    ../Drivers/STM32L4xx_HAL_Driver/Src/stm32l4xx_hal_gpio.c 0x00000000   Number         0  stm32l4xx_hal_gpio.o ABSOLUTE
    ../Drivers/STM32L4xx_HAL_Driver/Src/stm32l4xx_hal_i2c.c 0x00000000   Number         0  stm32l4xx_hal_i2c.o ABSOLUTE
    ../Drivers/STM32L4xx_HAL_Driver/Src/stm32l4xx_hal_i2c_ex.c 0x00000000   Number         0  stm32l4xx_hal_i2c_ex.o ABSOLUTE
    ../Drivers/STM32L4xx_HAL_Driver/Src/stm32l4xx_hal_pwr.c 0x00000000   Number         0  stm32l4xx_hal_pwr.o ABSOLUTE
    ../Drivers/STM32L4xx_HAL_Driver/Src/stm32l4xx_hal_pwr_ex.c 0x00000000   Number         0  stm32l4xx_hal_pwr_ex.o ABSOLUTE
    ../Drivers/STM32L4xx_HAL_Driver/Src/stm32l4xx_hal_rcc.c 0x00000000   Number         0  stm32l4xx_hal_rcc.o ABSOLUTE
    ../Drivers/STM32L4xx_HAL_Driver/Src/stm32l4xx_hal_rcc_ex.c 0x00000000   Number         0  stm32l4xx_hal_rcc_ex.o ABSOLUTE
    ../Drivers/STM32L4xx_HAL_Driver/Src/stm32l4xx_hal_rtc.c 0x00000000   Number         0  stm32l4xx_hal_rtc.o ABSOLUTE
    ../Drivers/STM32L4xx_HAL_Driver/Src/stm32l4xx_hal_rtc_ex.c 0x00000000   Number         0  stm32l4xx_hal_rtc_ex.o ABSOLUTE
    ../Drivers/STM32L4xx_HAL_Driver/Src/stm32l4xx_hal_tim.c 0x00000000   Number         0  stm32l4xx_hal_tim.o ABSOLUTE
    ../Drivers/STM32L4xx_HAL_Driver/Src/stm32l4xx_hal_tim_ex.c 0x00000000   Number         0  stm32l4xx_hal_tim_ex.o ABSOLUTE
    ../Drivers/STM32L4xx_HAL_Driver/Src/stm32l4xx_hal_uart.c 0x00000000   Number         0  stm32l4xx_hal_uart.o ABSOLUTE
    ../Drivers/STM32L4xx_HAL_Driver/Src/stm32l4xx_hal_uart_ex.c 0x00000000   Number         0  stm32l4xx_hal_uart_ex.o ABSOLUTE
    ../Src/dma.c                             0x00000000   Number         0  dma.o ABSOLUTE
    ../Src/gpio.c                            0x00000000   Number         0  gpio.o ABSOLUTE
    ../Src/main.c                            0x00000000   Number         0  main.o ABSOLUTE
    ../Src/rtc.c                             0x00000000   Number         0  rtc.o ABSOLUTE
    ../Src/stm32l4xx_hal_msp.c               0x00000000   Number         0  stm32l4xx_hal_msp.o ABSOLUTE
    ../Src/stm32l4xx_it.c                    0x00000000   Number         0  stm32l4xx_it.o ABSOLUTE
    ../Src/system_stm32l4xx.c                0x00000000   Number         0  system_stm32l4xx.o ABSOLUTE
    ../Src/usart.c                           0x00000000   Number         0  usart.o ABSOLUTE
    ../clib/microlib/division.c              0x00000000   Number         0  uidiv.o ABSOLUTE
    ../clib/microlib/division.c              0x00000000   Number         0  uldiv.o ABSOLUTE
    ../clib/microlib/init/entry.s            0x00000000   Number         0  entry7b.o ABSOLUTE
    ../clib/microlib/init/entry.s            0x00000000   Number         0  entry9b.o ABSOLUTE
    ../clib/microlib/init/entry.s            0x00000000   Number         0  entry8a.o ABSOLUTE
    ../clib/microlib/init/entry.s            0x00000000   Number         0  entry10b.o ABSOLUTE
    ../clib/microlib/init/entry.s            0x00000000   Number         0  entry10a.o ABSOLUTE
    ../clib/microlib/init/entry.s            0x00000000   Number         0  entry2.o ABSOLUTE
    ../clib/microlib/init/entry.s            0x00000000   Number         0  entry11a.o ABSOLUTE
    ../clib/microlib/init/entry.s            0x00000000   Number         0  entry11b.o ABSOLUTE
    ../clib/microlib/init/entry.s            0x00000000   Number         0  entry9a.o ABSOLUTE
    ../clib/microlib/init/entry.s            0x00000000   Number         0  entry5.o ABSOLUTE
    ../clib/microlib/init/entry.s            0x00000000   Number         0  entry.o ABSOLUTE
    ../clib/microlib/init/entry.s            0x00000000   Number         0  entry7a.o ABSOLUTE
    ../clib/microlib/init/entry.s            0x00000000   Number         0  entry8b.o ABSOLUTE
    ../clib/microlib/longlong.c              0x00000000   Number         0  llsshr.o ABSOLUTE
    ../clib/microlib/longlong.c              0x00000000   Number         0  llushr.o ABSOLUTE
    ../clib/microlib/longlong.c              0x00000000   Number         0  llshl.o ABSOLUTE
    ../clib/microlib/printf/printf.c         0x00000000   Number         0  printf5.o ABSOLUTE
    ../clib/microlib/printf/printf.c         0x00000000   Number         0  printf4.o ABSOLUTE
    ../clib/microlib/printf/printf.c         0x00000000   Number         0  printf8.o ABSOLUTE
    ../clib/microlib/printf/printf.c         0x00000000   Number         0  printf3.o ABSOLUTE
    ../clib/microlib/printf/printf.c         0x00000000   Number         0  printf2.o ABSOLUTE
    ../clib/microlib/printf/printf.c         0x00000000   Number         0  printf1.o ABSOLUTE
    ../clib/microlib/printf/printf.c         0x00000000   Number         0  printf0.o ABSOLUTE
    ../clib/microlib/printf/printf.c         0x00000000   Number         0  printfa.o ABSOLUTE
    ../clib/microlib/printf/printf.c         0x00000000   Number         0  printf7.o ABSOLUTE
    ../clib/microlib/printf/printf.c         0x00000000   Number         0  printf6.o ABSOLUTE
    ../clib/microlib/printf/printf.c         0x00000000   Number         0  printfb.o ABSOLUTE
    ../clib/microlib/printf/stubs.s          0x00000000   Number         0  stubs.o ABSOLUTE
    ../clib/microlib/stdio/puts.c            0x00000000   Number         0  puts.o ABSOLUTE
    ../clib/microlib/stdio/puts.c            0x00000000   Number         0  puts_e.o ABSOLUTE
    ../clib/microlib/string/memset.c         0x00000000   Number         0  memseta.o ABSOLUTE
    ../clib/microlib/string/strcmp.c         0x00000000   Number         0  strcmp.o ABSOLUTE
    ../clib/microlib/stubs.s                 0x00000000   Number         0  iusefp.o ABSOLUTE
    ../clib/microlib/stubs.s                 0x00000000   Number         0  useno.o ABSOLUTE
    ../fplib/microlib/fpadd.c                0x00000000   Number         0  dadd.o ABSOLUTE
    ../fplib/microlib/fpdiv.c                0x00000000   Number         0  ddiv.o ABSOLUTE
    ../fplib/microlib/fpepilogue.c           0x00000000   Number         0  depilogue.o ABSOLUTE
    ../fplib/microlib/fpfix.c                0x00000000   Number         0  dfixul.o ABSOLUTE
    ../fplib/microlib/fpmul.c                0x00000000   Number         0  dmul.o ABSOLUTE
    ..\Drivers\STM32L4xx_HAL_Driver\Src\stm32l4xx_hal.c 0x00000000   Number         0  stm32l4xx_hal.o ABSOLUTE
    ..\Drivers\STM32L4xx_HAL_Driver\Src\stm32l4xx_hal_cortex.c 0x00000000   Number         0  stm32l4xx_hal_cortex.o ABSOLUTE
    ..\Drivers\STM32L4xx_HAL_Driver\Src\stm32l4xx_hal_dma.c 0x00000000   Number         0  stm32l4xx_hal_dma.o ABSOLUTE
    ..\Drivers\STM32L4xx_HAL_Driver\Src\stm32l4xx_hal_dma_ex.c 0x00000000   Number         0  stm32l4xx_hal_dma_ex.o ABSOLUTE
    ..\Drivers\STM32L4xx_HAL_Driver\Src\stm32l4xx_hal_exti.c 0x00000000   Number         0  stm32l4xx_hal_exti.o ABSOLUTE
    ..\Drivers\STM32L4xx_HAL_Driver\Src\stm32l4xx_hal_flash.c 0x00000000   Number         0  stm32l4xx_hal_flash.o ABSOLUTE
    ..\Drivers\STM32L4xx_HAL_Driver\Src\stm32l4xx_hal_flash_ex.c 0x00000000   Number         0  stm32l4xx_hal_flash_ex.o ABSOLUTE
    ..\Drivers\STM32L4xx_HAL_Driver\Src\stm32l4xx_hal_flash_ramfunc.c 0x00000000   Number         0  stm32l4xx_hal_flash_ramfunc.o ABSOLUTE
    ..\Drivers\STM32L4xx_HAL_Driver\Src\stm32l4xx_hal_gpio.c 0x00000000   Number         0  stm32l4xx_hal_gpio.o ABSOLUTE
    ..\Drivers\STM32L4xx_HAL_Driver\Src\stm32l4xx_hal_i2c.c 0x00000000   Number         0  stm32l4xx_hal_i2c.o ABSOLUTE
    ..\Drivers\STM32L4xx_HAL_Driver\Src\stm32l4xx_hal_i2c_ex.c 0x00000000   Number         0  stm32l4xx_hal_i2c_ex.o ABSOLUTE
    ..\Drivers\STM32L4xx_HAL_Driver\Src\stm32l4xx_hal_pwr.c 0x00000000   Number         0  stm32l4xx_hal_pwr.o ABSOLUTE
    ..\Drivers\STM32L4xx_HAL_Driver\Src\stm32l4xx_hal_pwr_ex.c 0x00000000   Number         0  stm32l4xx_hal_pwr_ex.o ABSOLUTE
    ..\Drivers\STM32L4xx_HAL_Driver\Src\stm32l4xx_hal_rcc.c 0x00000000   Number         0  stm32l4xx_hal_rcc.o ABSOLUTE
    ..\Drivers\STM32L4xx_HAL_Driver\Src\stm32l4xx_hal_rcc_ex.c 0x00000000   Number         0  stm32l4xx_hal_rcc_ex.o ABSOLUTE
    ..\Drivers\STM32L4xx_HAL_Driver\Src\stm32l4xx_hal_rtc.c 0x00000000   Number         0  stm32l4xx_hal_rtc.o ABSOLUTE
    ..\Drivers\STM32L4xx_HAL_Driver\Src\stm32l4xx_hal_rtc_ex.c 0x00000000   Number         0  stm32l4xx_hal_rtc_ex.o ABSOLUTE
    ..\Drivers\STM32L4xx_HAL_Driver\Src\stm32l4xx_hal_tim.c 0x00000000   Number         0  stm32l4xx_hal_tim.o ABSOLUTE
    ..\Drivers\STM32L4xx_HAL_Driver\Src\stm32l4xx_hal_tim_ex.c 0x00000000   Number         0  stm32l4xx_hal_tim_ex.o ABSOLUTE
    ..\Drivers\STM32L4xx_HAL_Driver\Src\stm32l4xx_hal_uart.c 0x00000000   Number         0  stm32l4xx_hal_uart.o ABSOLUTE
    ..\Drivers\STM32L4xx_HAL_Driver\Src\stm32l4xx_hal_uart_ex.c 0x00000000   Number         0  stm32l4xx_hal_uart_ex.o ABSOLUTE
    ..\Src\dma.c                             0x00000000   Number         0  dma.o ABSOLUTE
    ..\Src\gpio.c                            0x00000000   Number         0  gpio.o ABSOLUTE
    ..\Src\main.c                            0x00000000   Number         0  main.o ABSOLUTE
    ..\Src\retarget.c                        0x00000000   Number         0  retarget.o ABSOLUTE
    ..\Src\rtc.c                             0x00000000   Number         0  rtc.o ABSOLUTE
    ..\Src\stm32l4xx_hal_msp.c               0x00000000   Number         0  stm32l4xx_hal_msp.o ABSOLUTE
    ..\Src\stm32l4xx_it.c                    0x00000000   Number         0  stm32l4xx_it.o ABSOLUTE
    ..\Src\system_stm32l4xx.c                0x00000000   Number         0  system_stm32l4xx.o ABSOLUTE
    ..\Src\usart.c                           0x00000000   Number         0  usart.o ABSOLUTE
    ..\\Src\\retarget.c                      0x00000000   Number         0  retarget.o ABSOLUTE
    ..\\terminal\\src\\cursor.c              0x00000000   Number         0  cursor.o ABSOLUTE
    ..\\terminal\\src\\esc_codes.c           0x00000000   Number         0  esc_codes.o ABSOLUTE
    ..\\terminal\\src\\esq_seq.c             0x00000000   Number         0  esq_seq.o ABSOLUTE
    ..\\terminal\\src\\radio_button.c        0x00000000   Number         0  radio_button.o ABSOLUTE
    ..\\terminal\\src\\terminal_graphics.c   0x00000000   Number         0  terminal_graphics.o ABSOLUTE
    ..\terminal\src\cursor.c                 0x00000000   Number         0  cursor.o ABSOLUTE
    ..\terminal\src\esc_codes.c              0x00000000   Number         0  esc_codes.o ABSOLUTE
    ..\terminal\src\esq_seq.c                0x00000000   Number         0  esq_seq.o ABSOLUTE
    ..\terminal\src\radio_button.c           0x00000000   Number         0  radio_button.o ABSOLUTE
    ..\terminal\src\terminal_graphics.c      0x00000000   Number         0  terminal_graphics.o ABSOLUTE
    cdrcmple.s                               0x00000000   Number         0  cdrcmple.o ABSOLUTE
    dc.s                                     0x00000000   Number         0  dc.o ABSOLUTE
    handlers.s                               0x00000000   Number         0  handlers.o ABSOLUTE
    init.s                                   0x00000000   Number         0  init.o ABSOLUTE
    startup_stm32l452xx.s                    0x00000000   Number         0  startup_stm32l452xx.o ABSOLUTE
    RESET                                    0x08000000   Section      404  startup_stm32l452xx.o(RESET)
    .ARM.Collect$$$$00000000                 0x08000194   Section        0  entry.o(.ARM.Collect$$$$00000000)
    .ARM.Collect$$$$00000001                 0x08000194   Section        4  entry2.o(.ARM.Collect$$$$00000001)
    .ARM.Collect$$$$00000004                 0x08000198   Section        4  entry5.o(.ARM.Collect$$$$00000004)
    .ARM.Collect$$$$00000008                 0x0800019c   Section        0  entry7b.o(.ARM.Collect$$$$00000008)
    .ARM.Collect$$$$0000000A                 0x0800019c   Section        0  entry8b.o(.ARM.Collect$$$$0000000A)
    .ARM.Collect$$$$0000000B                 0x0800019c   Section        8  entry9a.o(.ARM.Collect$$$$0000000B)
    .ARM.Collect$$$$0000000D                 0x080001a4   Section        0  entry10a.o(.ARM.Collect$$$$0000000D)
    .ARM.Collect$$$$0000000F                 0x080001a4   Section        0  entry11a.o(.ARM.Collect$$$$0000000F)
    .ARM.Collect$$$$00002712                 0x080001a4   Section        4  entry2.o(.ARM.Collect$$$$00002712)
    __lit__00000000                          0x080001a4   Data           4  entry2.o(.ARM.Collect$$$$00002712)
    .text                                    0x080001a8   Section       36  startup_stm32l452xx.o(.text)
    $v0                                      0x080001a8   Number         0  startup_stm32l452xx.o(.text)
    .text                                    0x080001cc   Section        0  uldiv.o(.text)
    .text                                    0x0800022e   Section        0  memseta.o(.text)
    .text                                    0x08000252   Section        0  strcmp.o(.text)
    .text                                    0x0800026e   Section        0  uidiv.o(.text)
    .text                                    0x0800029a   Section        0  llshl.o(.text)
    .text                                    0x080002b8   Section        0  llushr.o(.text)
    .text                                    0x080002d8   Section       36  init.o(.text)
    i.BusFault_Handler                       0x080002fc   Section        0  stm32l4xx_it.o(i.BusFault_Handler)
    i.DMA1_Channel6_IRQHandler               0x08000300   Section        0  stm32l4xx_it.o(i.DMA1_Channel6_IRQHandler)
    i.DMA_SetConfig                          0x0800030c   Section        0  stm32l4xx_hal_dma.o(i.DMA_SetConfig)
    DMA_SetConfig                            0x0800030d   Thumb Code    46  stm32l4xx_hal_dma.o(i.DMA_SetConfig)
    i.DebugMon_Handler                       0x0800033a   Section        0  stm32l4xx_it.o(i.DebugMon_Handler)
    i.Error_Handler                          0x0800033c   Section        0  main.o(i.Error_Handler)
    i.HAL_DMA_Abort_IT                       0x0800033e   Section        0  stm32l4xx_hal_dma.o(i.HAL_DMA_Abort_IT)
    i.HAL_DMA_IRQHandler                     0x0800038c   Section        0  stm32l4xx_hal_dma.o(i.HAL_DMA_IRQHandler)
    i.HAL_DMA_Init                           0x08000448   Section        0  stm32l4xx_hal_dma.o(i.HAL_DMA_Init)
    i.HAL_DMA_Start_IT                       0x08000508   Section        0  stm32l4xx_hal_dma.o(i.HAL_DMA_Start_IT)
    i.HAL_Delay                              0x08000578   Section        0  stm32l4xx_hal.o(i.HAL_Delay)
    i.HAL_GPIO_Init                          0x0800059c   Section        0  stm32l4xx_hal_gpio.o(i.HAL_GPIO_Init)
    i.HAL_GPIO_WritePin                      0x08000724   Section        0  stm32l4xx_hal_gpio.o(i.HAL_GPIO_WritePin)
    i.HAL_GetTick                            0x08000730   Section        0  stm32l4xx_hal.o(i.HAL_GetTick)
    i.HAL_IncTick                            0x0800073c   Section        0  stm32l4xx_hal.o(i.HAL_IncTick)
    i.HAL_Init                               0x0800074c   Section        0  stm32l4xx_hal.o(i.HAL_Init)
    i.HAL_InitTick                           0x08000778   Section        0  stm32l4xx_hal.o(i.HAL_InitTick)
    i.HAL_MspInit                            0x080007bc   Section        0  stm32l4xx_hal_msp.o(i.HAL_MspInit)
    i.HAL_NVIC_EnableIRQ                     0x080007e8   Section        0  stm32l4xx_hal_cortex.o(i.HAL_NVIC_EnableIRQ)
    i.HAL_NVIC_SetPriority                   0x08000804   Section        0  stm32l4xx_hal_cortex.o(i.HAL_NVIC_SetPriority)
    i.HAL_NVIC_SetPriorityGrouping           0x08000844   Section        0  stm32l4xx_hal_cortex.o(i.HAL_NVIC_SetPriorityGrouping)
    i.HAL_PWREx_ControlVoltageScaling        0x08000868   Section        0  stm32l4xx_hal_pwr_ex.o(i.HAL_PWREx_ControlVoltageScaling)
    i.HAL_PWREx_GetVoltageRange              0x080008d0   Section        0  stm32l4xx_hal_pwr_ex.o(i.HAL_PWREx_GetVoltageRange)
    i.HAL_RCCEx_PeriphCLKConfig              0x080008e0   Section        0  stm32l4xx_hal_rcc_ex.o(i.HAL_RCCEx_PeriphCLKConfig)
    i.HAL_RCC_ClockConfig                    0x08000bf4   Section        0  stm32l4xx_hal_rcc.o(i.HAL_RCC_ClockConfig)
    i.HAL_RCC_GetPCLK1Freq                   0x08000d14   Section        0  stm32l4xx_hal_rcc.o(i.HAL_RCC_GetPCLK1Freq)
    i.HAL_RCC_GetPCLK2Freq                   0x08000d38   Section        0  stm32l4xx_hal_rcc.o(i.HAL_RCC_GetPCLK2Freq)
    i.HAL_RCC_GetSysClockFreq                0x08000d5c   Section        0  stm32l4xx_hal_rcc.o(i.HAL_RCC_GetSysClockFreq)
    i.HAL_RCC_OscConfig                      0x08000e00   Section        0  stm32l4xx_hal_rcc.o(i.HAL_RCC_OscConfig)
    i.HAL_RTC_Init                           0x08001324   Section        0  stm32l4xx_hal_rtc.o(i.HAL_RTC_Init)
    i.HAL_RTC_MspInit                        0x080013c0   Section        0  rtc.o(i.HAL_RTC_MspInit)
    i.HAL_RTC_WaitForSynchro                 0x080013e0   Section        0  stm32l4xx_hal_rtc.o(i.HAL_RTC_WaitForSynchro)
    i.HAL_SYSTICK_Config                     0x08001416   Section        0  stm32l4xx_hal_cortex.o(i.HAL_SYSTICK_Config)
    i.HAL_UARTEx_WakeupCallback              0x0800143e   Section        0  stm32l4xx_hal_uart_ex.o(i.HAL_UARTEx_WakeupCallback)
    i.HAL_UART_ErrorCallback                 0x08001440   Section        0  usart.o(i.HAL_UART_ErrorCallback)
    i.HAL_UART_IRQHandler                    0x0800147c   Section        0  stm32l4xx_hal_uart.o(i.HAL_UART_IRQHandler)
    i.HAL_UART_Init                          0x080015c0   Section        0  stm32l4xx_hal_uart.o(i.HAL_UART_Init)
    i.HAL_UART_MspInit                       0x08001628   Section        0  usart.o(i.HAL_UART_MspInit)
    i.HAL_UART_Receive_DMA                   0x080016cc   Section        0  stm32l4xx_hal_uart.o(i.HAL_UART_Receive_DMA)
    i.HAL_UART_RxCpltCallback                0x08001768   Section        0  usart.o(i.HAL_UART_RxCpltCallback)
    i.HAL_UART_RxHalfCpltCallback            0x08001780   Section        0  usart.o(i.HAL_UART_RxHalfCpltCallback)
    i.HAL_UART_Transmit                      0x08001798   Section        0  stm32l4xx_hal_uart.o(i.HAL_UART_Transmit)
    i.HAL_UART_TxCpltCallback                0x0800184c   Section        0  stm32l4xx_hal_uart.o(i.HAL_UART_TxCpltCallback)
    i.HardFault_Handler                      0x08001850   Section        0  stm32l4xx_it.o(i.HardFault_Handler)
    i.MX_DMA_Init                            0x08001888   Section        0  dma.o(i.MX_DMA_Init)
    i.MX_GPIO_Init                           0x080018b4   Section        0  gpio.o(i.MX_GPIO_Init)
    i.MX_RTC_Init                            0x08001980   Section        0  rtc.o(i.MX_RTC_Init)
    i.MX_USART2_UART_Init                    0x080019b8   Section        0  usart.o(i.MX_USART2_UART_Init)
    i.MemManage_Handler                      0x080019f4   Section        0  stm32l4xx_it.o(i.MemManage_Handler)
    i.NMI_Handler                            0x080019f6   Section        0  stm32l4xx_it.o(i.NMI_Handler)
    i.PendSV_Handler                         0x080019f8   Section        0  stm32l4xx_it.o(i.PendSV_Handler)
    i.RCCEx_PLLSAI1_Config                   0x080019fc   Section        0  stm32l4xx_hal_rcc_ex.o(i.RCCEx_PLLSAI1_Config)
    RCCEx_PLLSAI1_Config                     0x080019fd   Thumb Code   278  stm32l4xx_hal_rcc_ex.o(i.RCCEx_PLLSAI1_Config)
    i.RCC_SetFlashLatencyFromMSIRange        0x08001b28   Section        0  stm32l4xx_hal_rcc.o(i.RCC_SetFlashLatencyFromMSIRange)
    RCC_SetFlashLatencyFromMSIRange          0x08001b29   Thumb Code   116  stm32l4xx_hal_rcc.o(i.RCC_SetFlashLatencyFromMSIRange)
    i.RTC_EnterInitMode                      0x08001ba4   Section        0  stm32l4xx_hal_rtc.o(i.RTC_EnterInitMode)
    i.RTC_ExitInitMode                       0x08001bec   Section        0  stm32l4xx_hal_rtc.o(i.RTC_ExitInitMode)
    i.SVC_Handler                            0x08001c44   Section        0  stm32l4xx_it.o(i.SVC_Handler)
    i.SysTick_Handler                        0x08001c46   Section        0  stm32l4xx_it.o(i.SysTick_Handler)
    i.SystemClock_Config                     0x08001c4a   Section        0  main.o(i.SystemClock_Config)
    i.SystemInit                             0x08001cc4   Section        0  system_stm32l4xx.o(i.SystemInit)
    i.UART_AdvFeatureConfig                  0x08001d08   Section        0  stm32l4xx_hal_uart.o(i.UART_AdvFeatureConfig)
    i.UART_CheckIdleState                    0x08001dd0   Section        0  stm32l4xx_hal_uart.o(i.UART_CheckIdleState)
    i.UART_DMAAbortOnError                   0x08001e28   Section        0  stm32l4xx_hal_uart.o(i.UART_DMAAbortOnError)
    UART_DMAAbortOnError                     0x08001e29   Thumb Code    20  stm32l4xx_hal_uart.o(i.UART_DMAAbortOnError)
    i.UART_DMAError                          0x08001e3c   Section        0  stm32l4xx_hal_uart.o(i.UART_DMAError)
    UART_DMAError                            0x08001e3d   Thumb Code    72  stm32l4xx_hal_uart.o(i.UART_DMAError)
    i.UART_DMAReceiveCplt                    0x08001e84   Section        0  stm32l4xx_hal_uart.o(i.UART_DMAReceiveCplt)
    UART_DMAReceiveCplt                      0x08001e85   Thumb Code    60  stm32l4xx_hal_uart.o(i.UART_DMAReceiveCplt)
    i.UART_DMARxHalfCplt                     0x08001ec0   Section        0  stm32l4xx_hal_uart.o(i.UART_DMARxHalfCplt)
    UART_DMARxHalfCplt                       0x08001ec1   Thumb Code    10  stm32l4xx_hal_uart.o(i.UART_DMARxHalfCplt)
    i.UART_EndRxTransfer                     0x08001eca   Section        0  stm32l4xx_hal_uart.o(i.UART_EndRxTransfer)
    UART_EndRxTransfer                       0x08001ecb   Thumb Code    30  stm32l4xx_hal_uart.o(i.UART_EndRxTransfer)
    i.UART_EndTxTransfer                     0x08001ee8   Section        0  stm32l4xx_hal_uart.o(i.UART_EndTxTransfer)
    UART_EndTxTransfer                       0x08001ee9   Thumb Code    16  stm32l4xx_hal_uart.o(i.UART_EndTxTransfer)
    i.UART_SetConfig                         0x08001ef8   Section        0  stm32l4xx_hal_uart.o(i.UART_SetConfig)
    i.UART_WaitOnFlagUntilTimeout            0x08002170   Section        0  stm32l4xx_hal_uart.o(i.UART_WaitOnFlagUntilTimeout)
    i.USART2_IRQHandler                      0x080021d0   Section        0  stm32l4xx_it.o(i.USART2_IRQHandler)
    i.UsageFault_Handler                     0x080021dc   Section        0  stm32l4xx_it.o(i.UsageFault_Handler)
    i.__0printf$3                            0x080021e0   Section        0  printf3.o(i.__0printf$3)
    i.__NVIC_SetPriority                     0x08002200   Section        0  stm32l4xx_hal_cortex.o(i.__NVIC_SetPriority)
    __NVIC_SetPriority                       0x08002201   Thumb Code    32  stm32l4xx_hal_cortex.o(i.__NVIC_SetPriority)
    i.__scatterload_copy                     0x08002220   Section       14  handlers.o(i.__scatterload_copy)
    i.__scatterload_null                     0x0800222e   Section        2  handlers.o(i.__scatterload_null)
    i.__scatterload_zeroinit                 0x08002230   Section       14  handlers.o(i.__scatterload_zeroinit)
    i._printf_core                           0x08002240   Section        0  printf3.o(i._printf_core)
    _printf_core                             0x08002241   Thumb Code   436  printf3.o(i._printf_core)
    i.cursor_save                            0x080023f8   Section        0  cursor.o(i.cursor_save)
    i.cursor_set                             0x08002410   Section        0  cursor.o(i.cursor_set)
    i.cursor_update                          0x08002428   Section        0  cursor.o(i.cursor_update)
    i.esc_seq_clear                          0x0800243c   Section        0  esq_seq.o(i.esc_seq_clear)
    i.esc_seq_search                         0x08002450   Section        0  esq_seq.o(i.esc_seq_search)
    i.fputc                                  0x0800259c   Section        0  retarget.o(i.fputc)
    i.label_draw                             0x080025a0   Section        0  radio_button.o(i.label_draw)
    i.main                                   0x080025b8   Section        0  main.o(i.main)
    i.puts                                   0x080025f8   Section        0  puts.o(i.puts)
    i.radbtn_check                           0x0800261c   Section        0  radio_button.o(i.radbtn_check)
    i.radbtn_toggle                          0x08002638   Section        0  radio_button.o(i.radbtn_toggle)
    i.radbtn_update                          0x08002648   Section        0  radio_button.o(i.radbtn_update)
    i.sendchar                               0x0800266c   Section        0  retarget.o(i.sendchar)
    i.terminal_basement                      0x08002684   Section        0  terminal_graphics.o(i.terminal_basement)
    i.terminal_body                          0x080026e8   Section        0  terminal_graphics.o(i.terminal_body)
    i.terminal_callback                      0x08002724   Section        0  terminal_graphics.o(i.terminal_callback)
    i.terminal_cursor                        0x08002770   Section        0  terminal_graphics.o(i.terminal_cursor)
    i.terminal_frame                         0x080028a8   Section        0  terminal_graphics.o(i.terminal_frame)
    i.terminal_header                        0x080028e0   Section        0  terminal_graphics.o(i.terminal_header)
    i.terminal_init                          0x0800290c   Section        0  terminal_graphics.o(i.terminal_init)
    i.terminal_update                        0x080029c0   Section        0  terminal_graphics.o(i.terminal_update)
    .constdata                               0x08002a64   Section       64  system_stm32l4xx.o(.constdata)
    .constdata                               0x08002aa4   Section        8  system_stm32l4xx.o(.constdata)
    .constdata                               0x08002aac   Section        4  esc_codes.o(.constdata)
    .constdata                               0x08002ab0   Section        4  esc_codes.o(.constdata)
    .constdata                               0x08002ab4   Section        4  esc_codes.o(.constdata)
    .constdata                               0x08002ab8   Section        4  esc_codes.o(.constdata)
    .constdata                               0x08002abc   Section        6  esc_codes.o(.constdata)
    .constdata                               0x08002ac2   Section        6  esc_codes.o(.constdata)
    .constdata                               0x08002ac8   Section        6  esc_codes.o(.constdata)
    .constdata                               0x08002ace   Section        6  esc_codes.o(.constdata)
    .constdata                               0x08002ad4   Section        6  esc_codes.o(.constdata)
    .constdata                               0x08002ada   Section        6  esc_codes.o(.constdata)
    .constdata                               0x08002ae0   Section        6  esc_codes.o(.constdata)
    .constdata                               0x08002ae6   Section        6  esc_codes.o(.constdata)
    .constdata                               0x08002aec   Section        5  esc_codes.o(.constdata)
    .conststring                             0x08002af4   Section     1557  terminal_graphics.o(.conststring)
    .data                                    0x20000000   Section        4  retarget.o(.data)
    .data                                    0x20000004   Section        2  usart.o(.data)
    .data                                    0x20000008   Section       12  stm32l4xx_hal.o(.data)
    .data                                    0x20000014   Section        4  system_stm32l4xx.o(.data)
    .data                                    0x20000018   Section        4  cursor.o(.data)
    .data                                    0x2000001c   Section        8  esq_seq.o(.data)
    .data                                    0x20000024   Section        3  radio_button.o(.data)
    .data                                    0x20000027   Section        3  radio_button.o(.data)
    .data                                    0x2000002a   Section        3  radio_button.o(.data)
    .data                                    0x2000002d   Section        3  radio_button.o(.data)
    .data                                    0x20000030   Section        3  radio_button.o(.data)
    .data                                    0x20000033   Section        1  terminal_graphics.o(.data)
    .data                                    0x20000034   Section        1  terminal_graphics.o(.data)
    .bss                                     0x20000038   Section       36  rtc.o(.bss)
    .bss                                     0x2000005c   Section      200  usart.o(.bss)
    .bss                                     0x20000124   Section       14  radio_button.o(.bss)
    STACK                                    0x20000138   Section     1024  startup_stm32l452xx.o(STACK)

    Global Symbols

    Symbol Name                              Value     Ov Type        Size  Object(Section)

    BuildAttributes$$THM_ISAv4$E$P$D$K$B$S$7EM$VFPi3$EXTD16$VFPS$VFMA$PE$A:L22UL41UL21$X:L11$S22US41US21$IEEE1$IW$USESV6$~STKCKD$USESV7$~SHL$OSPACE$ROPI$EBA8$MICROLIB$REQ8$PRES8$EABIv2 0x00000000   Number         0  anon$$obj.o ABSOLUTE
    __ARM_use_no_argv                        0x00000000   Number         0  main.o ABSOLUTE
    __use_no_errno                           0x00000000   Number         0  useno.o ABSOLUTE
    __use_no_exception_handling              0x00000000   Number         0  useno.o ABSOLUTE
    __use_no_fp                              0x00000000   Number         0  useno.o ABSOLUTE
    __use_no_heap                            0x00000000   Number         0  useno.o ABSOLUTE
    __use_no_heap_region                     0x00000000   Number         0  useno.o ABSOLUTE
    __use_no_semihosting                     0x00000000   Number         0  useno.o ABSOLUTE
    __use_no_semihosting_swi                 0x00000000   Number         0  useno.o ABSOLUTE
    __use_no_signal_handling                 0x00000000   Number         0  useno.o ABSOLUTE
    _printf_a                                0x00000000   Number         0  stubs.o ABSOLUTE
    _printf_c                                0x00000000   Number         0  stubs.o ABSOLUTE
    _printf_charcount                        0x00000000   Number         0  stubs.o ABSOLUTE
    _printf_d                                0x00000000   Number         0  stubs.o ABSOLUTE
    _printf_e                                0x00000000   Number         0  stubs.o ABSOLUTE
    _printf_f                                0x00000000   Number         0  stubs.o ABSOLUTE
    _printf_flags                            0x00000000   Number         0  stubs.o ABSOLUTE
    _printf_fp_dec                           0x00000000   Number         0  stubs.o ABSOLUTE
    _printf_fp_hex                           0x00000000   Number         0  stubs.o ABSOLUTE
    _printf_g                                0x00000000   Number         0  stubs.o ABSOLUTE
    _printf_i                                0x00000000   Number         0  stubs.o ABSOLUTE
    _printf_int_dec                          0x00000000   Number         0  stubs.o ABSOLUTE
    _printf_l                                0x00000000   Number         0  stubs.o ABSOLUTE
    _printf_lc                               0x00000000   Number         0  stubs.o ABSOLUTE
    _printf_ll                               0x00000000   Number         0  stubs.o ABSOLUTE
    _printf_lld                              0x00000000   Number         0  stubs.o ABSOLUTE
    _printf_lli                              0x00000000   Number         0  stubs.o ABSOLUTE
    _printf_llo                              0x00000000   Number         0  stubs.o ABSOLUTE
    _printf_llu                              0x00000000   Number         0  stubs.o ABSOLUTE
    _printf_llx                              0x00000000   Number         0  stubs.o ABSOLUTE
    _printf_longlong_dec                     0x00000000   Number         0  stubs.o ABSOLUTE
    _printf_longlong_hex                     0x00000000   Number         0  stubs.o ABSOLUTE
    _printf_longlong_oct                     0x00000000   Number         0  stubs.o ABSOLUTE
    _printf_ls                               0x00000000   Number         0  stubs.o ABSOLUTE
    _printf_mbtowc                           0x00000000   Number         0  stubs.o ABSOLUTE
    _printf_n                                0x00000000   Number         0  stubs.o ABSOLUTE
    _printf_o                                0x00000000   Number         0  stubs.o ABSOLUTE
    _printf_p                                0x00000000   Number         0  stubs.o ABSOLUTE
    _printf_percent                          0x00000000   Number         0  stubs.o ABSOLUTE
    _printf_pre_padding                      0x00000000   Number         0  stubs.o ABSOLUTE
    _printf_return_value                     0x00000000   Number         0  stubs.o ABSOLUTE
    _printf_s                                0x00000000   Number         0  stubs.o ABSOLUTE
    _printf_sizespec                         0x00000000   Number         0  stubs.o ABSOLUTE
    _printf_str                              0x00000000   Number         0  stubs.o ABSOLUTE
    _printf_truncate_signed                  0x00000000   Number         0  stubs.o ABSOLUTE
    _printf_truncate_unsigned                0x00000000   Number         0  stubs.o ABSOLUTE
    _printf_u                                0x00000000   Number         0  stubs.o ABSOLUTE
    _printf_wc                               0x00000000   Number         0  stubs.o ABSOLUTE
    _printf_wctomb                           0x00000000   Number         0  stubs.o ABSOLUTE
    _printf_widthprec                        0x00000000   Number         0  stubs.o ABSOLUTE
    _printf_x                                0x00000000   Number         0  stubs.o ABSOLUTE
    __cpp_initialize__aeabi_                  - Undefined Weak Reference
    __cxa_finalize                            - Undefined Weak Reference
    __decompress                              - Undefined Weak Reference
    _clock_init                               - Undefined Weak Reference
    _microlib_exit                            - Undefined Weak Reference
    __Vectors_Size                           0x00000194   Number         0  startup_stm32l452xx.o ABSOLUTE
    __Vectors                                0x08000000   Data           4  startup_stm32l452xx.o(RESET)
    __Vectors_End                            0x08000194   Data           0  startup_stm32l452xx.o(RESET)
    __main                                   0x08000195   Thumb Code     0  entry.o(.ARM.Collect$$$$00000000)
    _main_stk                                0x08000195   Thumb Code     0  entry2.o(.ARM.Collect$$$$00000001)
    _main_scatterload                        0x08000199   Thumb Code     0  entry5.o(.ARM.Collect$$$$00000004)
    __main_after_scatterload                 0x0800019d   Thumb Code     0  entry5.o(.ARM.Collect$$$$00000004)
    _main_clock                              0x0800019d   Thumb Code     0  entry7b.o(.ARM.Collect$$$$00000008)
    _main_cpp_init                           0x0800019d   Thumb Code     0  entry8b.o(.ARM.Collect$$$$0000000A)
    _main_init                               0x0800019d   Thumb Code     0  entry9a.o(.ARM.Collect$$$$0000000B)
    __rt_final_cpp                           0x080001a5   Thumb Code     0  entry10a.o(.ARM.Collect$$$$0000000D)
    __rt_final_exit                          0x080001a5   Thumb Code     0  entry11a.o(.ARM.Collect$$$$0000000F)
    Reset_Handler                            0x080001a9   Thumb Code     8  startup_stm32l452xx.o(.text)
    ADC1_IRQHandler                          0x080001c3   Thumb Code     0  startup_stm32l452xx.o(.text)
    CAN1_RX0_IRQHandler                      0x080001c3   Thumb Code     0  startup_stm32l452xx.o(.text)
    CAN1_RX1_IRQHandler                      0x080001c3   Thumb Code     0  startup_stm32l452xx.o(.text)
    CAN1_SCE_IRQHandler                      0x080001c3   Thumb Code     0  startup_stm32l452xx.o(.text)
    CAN1_TX_IRQHandler                       0x080001c3   Thumb Code     0  startup_stm32l452xx.o(.text)
    COMP_IRQHandler                          0x080001c3   Thumb Code     0  startup_stm32l452xx.o(.text)
    CRS_IRQHandler                           0x080001c3   Thumb Code     0  startup_stm32l452xx.o(.text)
    DFSDM1_FLT0_IRQHandler                   0x080001c3   Thumb Code     0  startup_stm32l452xx.o(.text)
    DFSDM1_FLT1_IRQHandler                   0x080001c3   Thumb Code     0  startup_stm32l452xx.o(.text)
    DMA1_Channel1_IRQHandler                 0x080001c3   Thumb Code     0  startup_stm32l452xx.o(.text)
    DMA1_Channel2_IRQHandler                 0x080001c3   Thumb Code     0  startup_stm32l452xx.o(.text)
    DMA1_Channel3_IRQHandler                 0x080001c3   Thumb Code     0  startup_stm32l452xx.o(.text)
    DMA1_Channel4_IRQHandler                 0x080001c3   Thumb Code     0  startup_stm32l452xx.o(.text)
    DMA1_Channel5_IRQHandler                 0x080001c3   Thumb Code     0  startup_stm32l452xx.o(.text)
    DMA1_Channel7_IRQHandler                 0x080001c3   Thumb Code     0  startup_stm32l452xx.o(.text)
    DMA2_Channel1_IRQHandler                 0x080001c3   Thumb Code     0  startup_stm32l452xx.o(.text)
    DMA2_Channel2_IRQHandler                 0x080001c3   Thumb Code     0  startup_stm32l452xx.o(.text)
    DMA2_Channel3_IRQHandler                 0x080001c3   Thumb Code     0  startup_stm32l452xx.o(.text)
    DMA2_Channel4_IRQHandler                 0x080001c3   Thumb Code     0  startup_stm32l452xx.o(.text)
    DMA2_Channel5_IRQHandler                 0x080001c3   Thumb Code     0  startup_stm32l452xx.o(.text)
    DMA2_Channel6_IRQHandler                 0x080001c3   Thumb Code     0  startup_stm32l452xx.o(.text)
    DMA2_Channel7_IRQHandler                 0x080001c3   Thumb Code     0  startup_stm32l452xx.o(.text)
    EXTI0_IRQHandler                         0x080001c3   Thumb Code     0  startup_stm32l452xx.o(.text)
    EXTI15_10_IRQHandler                     0x080001c3   Thumb Code     0  startup_stm32l452xx.o(.text)
    EXTI1_IRQHandler                         0x080001c3   Thumb Code     0  startup_stm32l452xx.o(.text)
    EXTI2_IRQHandler                         0x080001c3   Thumb Code     0  startup_stm32l452xx.o(.text)
    EXTI3_IRQHandler                         0x080001c3   Thumb Code     0  startup_stm32l452xx.o(.text)
    EXTI4_IRQHandler                         0x080001c3   Thumb Code     0  startup_stm32l452xx.o(.text)
    EXTI9_5_IRQHandler                       0x080001c3   Thumb Code     0  startup_stm32l452xx.o(.text)
    FLASH_IRQHandler                         0x080001c3   Thumb Code     0  startup_stm32l452xx.o(.text)
    FPU_IRQHandler                           0x080001c3   Thumb Code     0  startup_stm32l452xx.o(.text)
    I2C1_ER_IRQHandler                       0x080001c3   Thumb Code     0  startup_stm32l452xx.o(.text)
    I2C1_EV_IRQHandler                       0x080001c3   Thumb Code     0  startup_stm32l452xx.o(.text)
    I2C2_ER_IRQHandler                       0x080001c3   Thumb Code     0  startup_stm32l452xx.o(.text)
    I2C2_EV_IRQHandler                       0x080001c3   Thumb Code     0  startup_stm32l452xx.o(.text)
    I2C3_ER_IRQHandler                       0x080001c3   Thumb Code     0  startup_stm32l452xx.o(.text)
    I2C3_EV_IRQHandler                       0x080001c3   Thumb Code     0  startup_stm32l452xx.o(.text)
    I2C4_ER_IRQHandler                       0x080001c3   Thumb Code     0  startup_stm32l452xx.o(.text)
    I2C4_EV_IRQHandler                       0x080001c3   Thumb Code     0  startup_stm32l452xx.o(.text)
    LPTIM1_IRQHandler                        0x080001c3   Thumb Code     0  startup_stm32l452xx.o(.text)
    LPTIM2_IRQHandler                        0x080001c3   Thumb Code     0  startup_stm32l452xx.o(.text)
    LPUART1_IRQHandler                       0x080001c3   Thumb Code     0  startup_stm32l452xx.o(.text)
    PVD_PVM_IRQHandler                       0x080001c3   Thumb Code     0  startup_stm32l452xx.o(.text)
    QUADSPI_IRQHandler                       0x080001c3   Thumb Code     0  startup_stm32l452xx.o(.text)
    RCC_IRQHandler                           0x080001c3   Thumb Code     0  startup_stm32l452xx.o(.text)
    RNG_IRQHandler                           0x080001c3   Thumb Code     0  startup_stm32l452xx.o(.text)
    RTC_Alarm_IRQHandler                     0x080001c3   Thumb Code     0  startup_stm32l452xx.o(.text)
    RTC_WKUP_IRQHandler                      0x080001c3   Thumb Code     0  startup_stm32l452xx.o(.text)
    SAI1_IRQHandler                          0x080001c3   Thumb Code     0  startup_stm32l452xx.o(.text)
    SDMMC1_IRQHandler                        0x080001c3   Thumb Code     0  startup_stm32l452xx.o(.text)
    SPI1_IRQHandler                          0x080001c3   Thumb Code     0  startup_stm32l452xx.o(.text)
    SPI2_IRQHandler                          0x080001c3   Thumb Code     0  startup_stm32l452xx.o(.text)
    SPI3_IRQHandler                          0x080001c3   Thumb Code     0  startup_stm32l452xx.o(.text)
    TAMP_STAMP_IRQHandler                    0x080001c3   Thumb Code     0  startup_stm32l452xx.o(.text)
    TIM1_BRK_TIM15_IRQHandler                0x080001c3   Thumb Code     0  startup_stm32l452xx.o(.text)
    TIM1_CC_IRQHandler                       0x080001c3   Thumb Code     0  startup_stm32l452xx.o(.text)
    TIM1_TRG_COM_IRQHandler                  0x080001c3   Thumb Code     0  startup_stm32l452xx.o(.text)
    TIM1_UP_TIM16_IRQHandler                 0x080001c3   Thumb Code     0  startup_stm32l452xx.o(.text)
    TIM2_IRQHandler                          0x080001c3   Thumb Code     0  startup_stm32l452xx.o(.text)
    TIM3_IRQHandler                          0x080001c3   Thumb Code     0  startup_stm32l452xx.o(.text)
    TIM6_DAC_IRQHandler                      0x080001c3   Thumb Code     0  startup_stm32l452xx.o(.text)
    TSC_IRQHandler                           0x080001c3   Thumb Code     0  startup_stm32l452xx.o(.text)
    UART4_IRQHandler                         0x080001c3   Thumb Code     0  startup_stm32l452xx.o(.text)
    USART1_IRQHandler                        0x080001c3   Thumb Code     0  startup_stm32l452xx.o(.text)
    USART3_IRQHandler                        0x080001c3   Thumb Code     0  startup_stm32l452xx.o(.text)
    USB_IRQHandler                           0x080001c3   Thumb Code     0  startup_stm32l452xx.o(.text)
    WWDG_IRQHandler                          0x080001c3   Thumb Code     0  startup_stm32l452xx.o(.text)
    __aeabi_uldivmod                         0x080001cd   Thumb Code    98  uldiv.o(.text)
    __aeabi_memset                           0x0800022f   Thumb Code    14  memseta.o(.text)
    __aeabi_memset4                          0x0800022f   Thumb Code     0  memseta.o(.text)
    __aeabi_memset8                          0x0800022f   Thumb Code     0  memseta.o(.text)
    __aeabi_memclr                           0x0800023d   Thumb Code     4  memseta.o(.text)
    __aeabi_memclr4                          0x0800023d   Thumb Code     0  memseta.o(.text)
    __aeabi_memclr8                          0x0800023d   Thumb Code     0  memseta.o(.text)
    _memset$wrapper                          0x08000241   Thumb Code    18  memseta.o(.text)
    strcmp                                   0x08000253   Thumb Code    28  strcmp.o(.text)
    __aeabi_uidiv                            0x0800026f   Thumb Code     0  uidiv.o(.text)
    __aeabi_uidivmod                         0x0800026f   Thumb Code    44  uidiv.o(.text)
    __aeabi_llsl                             0x0800029b   Thumb Code    30  llshl.o(.text)
    _ll_shift_l                              0x0800029b   Thumb Code     0  llshl.o(.text)
    __aeabi_llsr                             0x080002b9   Thumb Code    32  llushr.o(.text)
    _ll_ushift_r                             0x080002b9   Thumb Code     0  llushr.o(.text)
    __scatterload                            0x080002d9   Thumb Code    28  init.o(.text)
    __scatterload_rt2                        0x080002d9   Thumb Code     0  init.o(.text)
    BusFault_Handler                         0x080002fd   Thumb Code     2  stm32l4xx_it.o(i.BusFault_Handler)
    DMA1_Channel6_IRQHandler                 0x08000301   Thumb Code     6  stm32l4xx_it.o(i.DMA1_Channel6_IRQHandler)
    DebugMon_Handler                         0x0800033b   Thumb Code     2  stm32l4xx_it.o(i.DebugMon_Handler)
    Error_Handler                            0x0800033d   Thumb Code     2  main.o(i.Error_Handler)
    HAL_DMA_Abort_IT                         0x0800033f   Thumb Code    78  stm32l4xx_hal_dma.o(i.HAL_DMA_Abort_IT)
    HAL_DMA_IRQHandler                       0x0800038d   Thumb Code   186  stm32l4xx_hal_dma.o(i.HAL_DMA_IRQHandler)
    HAL_DMA_Init                             0x08000449   Thumb Code   178  stm32l4xx_hal_dma.o(i.HAL_DMA_Init)
    HAL_DMA_Start_IT                         0x08000509   Thumb Code   112  stm32l4xx_hal_dma.o(i.HAL_DMA_Start_IT)
    HAL_Delay                                0x08000579   Thumb Code    32  stm32l4xx_hal.o(i.HAL_Delay)
    HAL_GPIO_Init                            0x0800059d   Thumb Code   364  stm32l4xx_hal_gpio.o(i.HAL_GPIO_Init)
    HAL_GPIO_WritePin                        0x08000725   Thumb Code    10  stm32l4xx_hal_gpio.o(i.HAL_GPIO_WritePin)
    HAL_GetTick                              0x08000731   Thumb Code     6  stm32l4xx_hal.o(i.HAL_GetTick)
    HAL_IncTick                              0x0800073d   Thumb Code    12  stm32l4xx_hal.o(i.HAL_IncTick)
    HAL_Init                                 0x0800074d   Thumb Code    40  stm32l4xx_hal.o(i.HAL_Init)
    HAL_InitTick                             0x08000779   Thumb Code    58  stm32l4xx_hal.o(i.HAL_InitTick)
    HAL_MspInit                              0x080007bd   Thumb Code    38  stm32l4xx_hal_msp.o(i.HAL_MspInit)
    HAL_NVIC_EnableIRQ                       0x080007e9   Thumb Code    26  stm32l4xx_hal_cortex.o(i.HAL_NVIC_EnableIRQ)
    HAL_NVIC_SetPriority                     0x08000805   Thumb Code    60  stm32l4xx_hal_cortex.o(i.HAL_NVIC_SetPriority)
    HAL_NVIC_SetPriorityGrouping             0x08000845   Thumb Code    26  stm32l4xx_hal_cortex.o(i.HAL_NVIC_SetPriorityGrouping)
    HAL_PWREx_ControlVoltageScaling          0x08000869   Thumb Code    90  stm32l4xx_hal_pwr_ex.o(i.HAL_PWREx_ControlVoltageScaling)
    HAL_PWREx_GetVoltageRange                0x080008d1   Thumb Code    10  stm32l4xx_hal_pwr_ex.o(i.HAL_PWREx_GetVoltageRange)
    HAL_RCCEx_PeriphCLKConfig                0x080008e1   Thumb Code   780  stm32l4xx_hal_rcc_ex.o(i.HAL_RCCEx_PeriphCLKConfig)
    HAL_RCC_ClockConfig                      0x08000bf5   Thumb Code   266  stm32l4xx_hal_rcc.o(i.HAL_RCC_ClockConfig)
    HAL_RCC_GetPCLK1Freq                     0x08000d15   Thumb Code    24  stm32l4xx_hal_rcc.o(i.HAL_RCC_GetPCLK1Freq)
    HAL_RCC_GetPCLK2Freq                     0x08000d39   Thumb Code    24  stm32l4xx_hal_rcc.o(i.HAL_RCC_GetPCLK2Freq)
    HAL_RCC_GetSysClockFreq                  0x08000d5d   Thumb Code   150  stm32l4xx_hal_rcc.o(i.HAL_RCC_GetSysClockFreq)
    HAL_RCC_OscConfig                        0x08000e01   Thumb Code  1312  stm32l4xx_hal_rcc.o(i.HAL_RCC_OscConfig)
    HAL_RTC_Init                             0x08001325   Thumb Code   150  stm32l4xx_hal_rtc.o(i.HAL_RTC_Init)
    HAL_RTC_MspInit                          0x080013c1   Thumb Code    22  rtc.o(i.HAL_RTC_MspInit)
    HAL_RTC_WaitForSynchro                   0x080013e1   Thumb Code    54  stm32l4xx_hal_rtc.o(i.HAL_RTC_WaitForSynchro)
    HAL_SYSTICK_Config                       0x08001417   Thumb Code    40  stm32l4xx_hal_cortex.o(i.HAL_SYSTICK_Config)
    HAL_UARTEx_WakeupCallback                0x0800143f   Thumb Code     2  stm32l4xx_hal_uart_ex.o(i.HAL_UARTEx_WakeupCallback)
    HAL_UART_ErrorCallback                   0x08001441   Thumb Code    48  usart.o(i.HAL_UART_ErrorCallback)
    HAL_UART_IRQHandler                      0x0800147d   Thumb Code   318  stm32l4xx_hal_uart.o(i.HAL_UART_IRQHandler)
    HAL_UART_Init                            0x080015c1   Thumb Code   102  stm32l4xx_hal_uart.o(i.HAL_UART_Init)
    HAL_UART_MspInit                         0x08001629   Thumb Code   148  usart.o(i.HAL_UART_MspInit)
    HAL_UART_Receive_DMA                     0x080016cd   Thumb Code   142  stm32l4xx_hal_uart.o(i.HAL_UART_Receive_DMA)
    HAL_UART_RxCpltCallback                  0x08001769   Thumb Code    16  usart.o(i.HAL_UART_RxCpltCallback)
    HAL_UART_RxHalfCpltCallback              0x08001781   Thumb Code    16  usart.o(i.HAL_UART_RxHalfCpltCallback)
    HAL_UART_Transmit                        0x08001799   Thumb Code   180  stm32l4xx_hal_uart.o(i.HAL_UART_Transmit)
    HAL_UART_TxCpltCallback                  0x0800184d   Thumb Code     2  stm32l4xx_hal_uart.o(i.HAL_UART_TxCpltCallback)
    HardFault_Handler                        0x08001851   Thumb Code    26  stm32l4xx_it.o(i.HardFault_Handler)
    MX_DMA_Init                              0x08001889   Thumb Code    40  dma.o(i.MX_DMA_Init)
    MX_GPIO_Init                             0x080018b5   Thumb Code   186  gpio.o(i.MX_GPIO_Init)
    MX_RTC_Init                              0x08001981   Thumb Code    46  rtc.o(i.MX_RTC_Init)
    MX_USART2_UART_Init                      0x080019b9   Thumb Code    52  usart.o(i.MX_USART2_UART_Init)
    MemManage_Handler                        0x080019f5   Thumb Code     2  stm32l4xx_it.o(i.MemManage_Handler)
    NMI_Handler                              0x080019f7   Thumb Code     2  stm32l4xx_it.o(i.NMI_Handler)
    PendSV_Handler                           0x080019f9   Thumb Code     2  stm32l4xx_it.o(i.PendSV_Handler)
    RTC_EnterInitMode                        0x08001ba5   Thumb Code    70  stm32l4xx_hal_rtc.o(i.RTC_EnterInitMode)
    RTC_ExitInitMode                         0x08001bed   Thumb Code    82  stm32l4xx_hal_rtc.o(i.RTC_ExitInitMode)
    SVC_Handler                              0x08001c45   Thumb Code     2  stm32l4xx_it.o(i.SVC_Handler)
    SysTick_Handler                          0x08001c47   Thumb Code     4  stm32l4xx_it.o(i.SysTick_Handler)
    SystemClock_Config                       0x08001c4b   Thumb Code   122  main.o(i.SystemClock_Config)
    SystemInit                               0x08001cc5   Thumb Code    56  system_stm32l4xx.o(i.SystemInit)
    UART_AdvFeatureConfig                    0x08001d09   Thumb Code   200  stm32l4xx_hal_uart.o(i.UART_AdvFeatureConfig)
    UART_CheckIdleState                      0x08001dd1   Thumb Code    88  stm32l4xx_hal_uart.o(i.UART_CheckIdleState)
    UART_SetConfig                           0x08001ef9   Thumb Code   586  stm32l4xx_hal_uart.o(i.UART_SetConfig)
    UART_WaitOnFlagUntilTimeout              0x08002171   Thumb Code    96  stm32l4xx_hal_uart.o(i.UART_WaitOnFlagUntilTimeout)
    USART2_IRQHandler                        0x080021d1   Thumb Code     6  stm32l4xx_it.o(i.USART2_IRQHandler)
    UsageFault_Handler                       0x080021dd   Thumb Code     2  stm32l4xx_it.o(i.UsageFault_Handler)
    __0printf$3                              0x080021e1   Thumb Code    22  printf3.o(i.__0printf$3)
    __1printf$3                              0x080021e1   Thumb Code     0  printf3.o(i.__0printf$3)
    __2printf                                0x080021e1   Thumb Code     0  printf3.o(i.__0printf$3)
    __scatterload_copy                       0x08002221   Thumb Code    14  handlers.o(i.__scatterload_copy)
    __scatterload_null                       0x0800222f   Thumb Code     2  handlers.o(i.__scatterload_null)
    __scatterload_zeroinit                   0x08002231   Thumb Code    14  handlers.o(i.__scatterload_zeroinit)
    cursor_save                              0x080023f9   Thumb Code    22  cursor.o(i.cursor_save)
    cursor_set                               0x08002411   Thumb Code    10  cursor.o(i.cursor_set)
    cursor_update                            0x08002429   Thumb Code    18  cursor.o(i.cursor_update)
    esc_seq_clear                            0x0800243d   Thumb Code    16  esq_seq.o(i.esc_seq_clear)
    esc_seq_search                           0x08002451   Thumb Code   270  esq_seq.o(i.esc_seq_search)
    fputc                                    0x0800259d   Thumb Code     4  retarget.o(i.fputc)
    label_draw                               0x080025a1   Thumb Code    20  radio_button.o(i.label_draw)
    main                                     0x080025b9   Thumb Code    48  main.o(i.main)
    puts                                     0x080025f9   Thumb Code    30  puts.o(i.puts)
    radbtn_check                             0x0800261d   Thumb Code    24  radio_button.o(i.radbtn_check)
    radbtn_toggle                            0x08002639   Thumb Code    14  radio_button.o(i.radbtn_toggle)
    radbtn_update                            0x08002649   Thumb Code    28  radio_button.o(i.radbtn_update)
    sendchar                                 0x0800266d   Thumb Code    18  retarget.o(i.sendchar)
    terminal_basement                        0x08002685   Thumb Code    44  terminal_graphics.o(i.terminal_basement)
    terminal_body                            0x080026e9   Thumb Code    46  terminal_graphics.o(i.terminal_body)
    terminal_callback                        0x08002725   Thumb Code    60  terminal_graphics.o(i.terminal_callback)
    terminal_cursor                          0x08002771   Thumb Code   178  terminal_graphics.o(i.terminal_cursor)
    terminal_frame                           0x080028a9   Thumb Code    34  terminal_graphics.o(i.terminal_frame)
    terminal_header                          0x080028e1   Thumb Code    22  terminal_graphics.o(i.terminal_header)
    terminal_init                            0x0800290d   Thumb Code   118  terminal_graphics.o(i.terminal_init)
    terminal_update                          0x080029c1   Thumb Code   122  terminal_graphics.o(i.terminal_update)
    AHBPrescTable                            0x08002a64   Data          16  system_stm32l4xx.o(.constdata)
    MSIRangeTable                            0x08002a74   Data          48  system_stm32l4xx.o(.constdata)
    APBPrescTable                            0x08002aa4   Data           8  system_stm32l4xx.o(.constdata)
    up                                       0x08002aac   Data           4  esc_codes.o(.constdata)
    down                                     0x08002ab0   Data           4  esc_codes.o(.constdata)
    right                                    0x08002ab4   Data           4  esc_codes.o(.constdata)
    left                                     0x08002ab8   Data           4  esc_codes.o(.constdata)
    f1                                       0x08002abc   Data           6  esc_codes.o(.constdata)
    f2                                       0x08002ac2   Data           6  esc_codes.o(.constdata)
    f3                                       0x08002ac8   Data           6  esc_codes.o(.constdata)
    f4                                       0x08002ace   Data           6  esc_codes.o(.constdata)
    f5                                       0x08002ad4   Data           6  esc_codes.o(.constdata)
    f6                                       0x08002ada   Data           6  esc_codes.o(.constdata)
    f7                                       0x08002ae0   Data           6  esc_codes.o(.constdata)
    f8                                       0x08002ae6   Data           6  esc_codes.o(.constdata)
    dev_stat                                 0x08002aec   Data           5  esc_codes.o(.constdata)
    Region$$Table$$Base                      0x0800310c   Number         0  anon$$obj.o(Region$$Table)
    Region$$Table$$Limit                     0x0800312c   Number         0  anon$$obj.o(Region$$Table)
    __stdout                                 0x20000000   Data           4  retarget.o(.data)
    RX                                       0x20000004   Data           2  usart.o(.data)
    uwTickPrio                               0x20000008   Data           4  stm32l4xx_hal.o(.data)
    uwTickFreq                               0x2000000c   Data           4  stm32l4xx_hal.o(.data)
    uwTick                                   0x20000010   Data           4  stm32l4xx_hal.o(.data)
    SystemCoreClock                          0x20000014   Data           4  system_stm32l4xx.o(.data)
    cursor                                   0x20000018   Data           4  cursor.o(.data)
    esc_seq                                  0x2000001c   Data           1  esq_seq.o(.data)
    esc_seq_iter                             0x2000001d   Data           1  esq_seq.o(.data)
    esc_seq_buff                             0x2000001e   Data           6  esq_seq.o(.data)
    radbtn_led                               0x20000024   Data           3  radio_button.o(.data)
    next                                     0x20000027   Data           3  radio_button.o(.data)
    prev                                     0x2000002a   Data           3  radio_button.o(.data)
    bluetooth                                0x2000002d   Data           3  radio_button.o(.data)
    reboot                                   0x20000030   Data           3  radio_button.o(.data)
    terminal_status                          0x20000033   Data           1  terminal_graphics.o(.data)
    buff                                     0x20000034   Data           1  terminal_graphics.o(.data)
    hrtc                                     0x20000038   Data          36  rtc.o(.bss)
    huart2                                   0x2000005c   Data         128  usart.o(.bss)
    hdma_usart2_rx                           0x200000dc   Data          72  usart.o(.bss)
    label_debug                              0x20000124   Data          14  radio_button.o(.bss)
    __initial_sp                             0x20000538   Data           0  startup_stm32l452xx.o(STACK)



==============================================================================

Memory Map of the image

  Image Entry point : 0x08000195

  Load Region LR_IROM1 (Base: 0x08000000, Size: 0x00003164, Max: 0x00080000, ABSOLUTE)

    Execution Region ER_IROM1 (Base: 0x08000000, Size: 0x0000312c, Max: 0x00080000, ABSOLUTE)

    Base Addr    Size         Type   Attr      Idx    E Section Name        Object

    0x08000000   0x00000194   Data   RO            3    RESET               startup_stm32l452xx.o
    0x08000194   0x00000000   Code   RO         3618  * .ARM.Collect$$$$00000000  mc_w.l(entry.o)
    0x08000194   0x00000004   Code   RO         3892    .ARM.Collect$$$$00000001  mc_w.l(entry2.o)
    0x08000198   0x00000004   Code   RO         3895    .ARM.Collect$$$$00000004  mc_w.l(entry5.o)
    0x0800019c   0x00000000   Code   RO         3897    .ARM.Collect$$$$00000008  mc_w.l(entry7b.o)
    0x0800019c   0x00000000   Code   RO         3899    .ARM.Collect$$$$0000000A  mc_w.l(entry8b.o)
    0x0800019c   0x00000008   Code   RO         3900    .ARM.Collect$$$$0000000B  mc_w.l(entry9a.o)
    0x080001a4   0x00000000   Code   RO         3902    .ARM.Collect$$$$0000000D  mc_w.l(entry10a.o)
    0x080001a4   0x00000000   Code   RO         3904    .ARM.Collect$$$$0000000F  mc_w.l(entry11a.o)
    0x080001a4   0x00000004   Code   RO         3893    .ARM.Collect$$$$00002712  mc_w.l(entry2.o)
    0x080001a8   0x00000024   Code   RO            4    .text               startup_stm32l452xx.o
    0x080001cc   0x00000062   Code   RO         3625    .text               mc_w.l(uldiv.o)
    0x0800022e   0x00000024   Code   RO         3627    .text               mc_w.l(memseta.o)
    0x08000252   0x0000001c   Code   RO         3629    .text               mc_w.l(strcmp.o)
    0x0800026e   0x0000002c   Code   RO         3906    .text               mc_w.l(uidiv.o)
    0x0800029a   0x0000001e   Code   RO         3908    .text               mc_w.l(llshl.o)
    0x080002b8   0x00000020   Code   RO         3910    .text               mc_w.l(llushr.o)
    0x080002d8   0x00000024   Code   RO         3923    .text               mc_w.l(init.o)
    0x080002fc   0x00000002   Code   RO          412    i.BusFault_Handler  stm32l4xx_it.o
    0x080002fe   0x00000002   PAD
    0x08000300   0x0000000c   Code   RO          413    i.DMA1_Channel6_IRQHandler  stm32l4xx_it.o
    0x0800030c   0x0000002e   Code   RO         2667    i.DMA_SetConfig     stm32l4xx_hal_dma.o
    0x0800033a   0x00000002   Code   RO          414    i.DebugMon_Handler  stm32l4xx_it.o
    0x0800033c   0x00000002   Code   RO          188    i.Error_Handler     main.o
    0x0800033e   0x0000004e   Code   RO         2669    i.HAL_DMA_Abort_IT  stm32l4xx_hal_dma.o
    0x0800038c   0x000000ba   Code   RO         2673    i.HAL_DMA_IRQHandler  stm32l4xx_hal_dma.o
    0x08000446   0x00000002   PAD
    0x08000448   0x000000c0   Code   RO         2674    i.HAL_DMA_Init      stm32l4xx_hal_dma.o
    0x08000508   0x00000070   Code   RO         2678    i.HAL_DMA_Start_IT  stm32l4xx_hal_dma.o
    0x08000578   0x00000024   Code   RO         1376    i.HAL_Delay         stm32l4xx_hal.o
    0x0800059c   0x00000188   Code   RO         2604    i.HAL_GPIO_Init     stm32l4xx_hal_gpio.o
    0x08000724   0x0000000a   Code   RO         2608    i.HAL_GPIO_WritePin  stm32l4xx_hal_gpio.o
    0x0800072e   0x00000002   PAD
    0x08000730   0x0000000c   Code   RO         1380    i.HAL_GetTick       stm32l4xx_hal.o
    0x0800073c   0x00000010   Code   RO         1386    i.HAL_IncTick       stm32l4xx_hal.o
    0x0800074c   0x0000002c   Code   RO         1387    i.HAL_Init          stm32l4xx_hal.o
    0x08000778   0x00000044   Code   RO         1388    i.HAL_InitTick      stm32l4xx_hal.o
    0x080007bc   0x0000002c   Code   RO          504    i.HAL_MspInit       stm32l4xx_hal_msp.o
    0x080007e8   0x0000001a   Code   RO         3115    i.HAL_NVIC_EnableIRQ  stm32l4xx_hal_cortex.o
    0x08000802   0x00000002   PAD
    0x08000804   0x00000040   Code   RO         3121    i.HAL_NVIC_SetPriority  stm32l4xx_hal_cortex.o
    0x08000844   0x00000024   Code   RO         3122    i.HAL_NVIC_SetPriorityGrouping  stm32l4xx_hal_cortex.o
    0x08000868   0x00000068   Code   RO         2895    i.HAL_PWREx_ControlVoltageScaling  stm32l4xx_hal_pwr_ex.o
    0x080008d0   0x00000010   Code   RO         2922    i.HAL_PWREx_GetVoltageRange  stm32l4xx_hal_pwr_ex.o
    0x080008e0   0x00000314   Code   RO         2237    i.HAL_RCCEx_PeriphCLKConfig  stm32l4xx_hal_rcc_ex.o
    0x08000bf4   0x00000120   Code   RO         2115    i.HAL_RCC_ClockConfig  stm32l4xx_hal_rcc.o
    0x08000d14   0x00000024   Code   RO         2121    i.HAL_RCC_GetPCLK1Freq  stm32l4xx_hal_rcc.o
    0x08000d38   0x00000024   Code   RO         2122    i.HAL_RCC_GetPCLK2Freq  stm32l4xx_hal_rcc.o
    0x08000d5c   0x000000a4   Code   RO         2123    i.HAL_RCC_GetSysClockFreq  stm32l4xx_hal_rcc.o
    0x08000e00   0x00000524   Code   RO         2126    i.HAL_RCC_OscConfig  stm32l4xx_hal_rcc.o
    0x08001324   0x0000009c   Code   RO          536    i.HAL_RTC_Init      stm32l4xx_hal_rtc.o
    0x080013c0   0x00000020   Code   RO          307    i.HAL_RTC_MspInit   rtc.o
    0x080013e0   0x00000036   Code   RO          544    i.HAL_RTC_WaitForSynchro  stm32l4xx_hal_rtc.o
    0x08001416   0x00000028   Code   RO         3126    i.HAL_SYSTICK_Config  stm32l4xx_hal_cortex.o
    0x0800143e   0x00000002   Code   RO         1310    i.HAL_UARTEx_WakeupCallback  stm32l4xx_hal_uart_ex.o
    0x08001440   0x0000003c   Code   RO          348    i.HAL_UART_ErrorCallback  usart.o
    0x0800147c   0x00000144   Code   RO          972    i.HAL_UART_IRQHandler  stm32l4xx_hal_uart.o
    0x080015c0   0x00000066   Code   RO          973    i.HAL_UART_Init     stm32l4xx_hal_uart.o
    0x08001626   0x00000002   PAD
    0x08001628   0x000000a4   Code   RO          350    i.HAL_UART_MspInit  usart.o
    0x080016cc   0x0000009c   Code   RO          977    i.HAL_UART_Receive_DMA  stm32l4xx_hal_uart.o
    0x08001768   0x00000018   Code   RO          351    i.HAL_UART_RxCpltCallback  usart.o
    0x08001780   0x00000018   Code   RO          352    i.HAL_UART_RxHalfCpltCallback  usart.o
    0x08001798   0x000000b4   Code   RO          981    i.HAL_UART_Transmit  stm32l4xx_hal_uart.o
    0x0800184c   0x00000002   Code   RO          984    i.HAL_UART_TxCpltCallback  stm32l4xx_hal_uart.o
    0x0800184e   0x00000002   PAD
    0x08001850   0x00000038   Code   RO          415    i.HardFault_Handler  stm32l4xx_it.o
    0x08001888   0x0000002c   Code   RO          282    i.MX_DMA_Init       dma.o
    0x080018b4   0x000000cc   Code   RO          258    i.MX_GPIO_Init      gpio.o
    0x08001980   0x00000038   Code   RO          308    i.MX_RTC_Init       rtc.o
    0x080019b8   0x0000003c   Code   RO          353    i.MX_USART2_UART_Init  usart.o
    0x080019f4   0x00000002   Code   RO          416    i.MemManage_Handler  stm32l4xx_it.o
    0x080019f6   0x00000002   Code   RO          417    i.NMI_Handler       stm32l4xx_it.o
    0x080019f8   0x00000002   Code   RO          418    i.PendSV_Handler    stm32l4xx_it.o
    0x080019fa   0x00000002   PAD
    0x080019fc   0x0000012c   Code   RO         2241    i.RCCEx_PLLSAI1_Config  stm32l4xx_hal_rcc_ex.o
    0x08001b28   0x0000007c   Code   RO         2127    i.RCC_SetFlashLatencyFromMSIRange  stm32l4xx_hal_rcc.o
    0x08001ba4   0x00000046   Code   RO          547    i.RTC_EnterInitMode  stm32l4xx_hal_rtc.o
    0x08001bea   0x00000002   PAD
    0x08001bec   0x00000058   Code   RO          548    i.RTC_ExitInitMode  stm32l4xx_hal_rtc.o
    0x08001c44   0x00000002   Code   RO          419    i.SVC_Handler       stm32l4xx_it.o
    0x08001c46   0x00000004   Code   RO          420    i.SysTick_Handler   stm32l4xx_it.o
    0x08001c4a   0x0000007a   Code   RO          189    i.SystemClock_Config  main.o
    0x08001cc4   0x00000044   Code   RO         3318    i.SystemInit        system_stm32l4xx.o
    0x08001d08   0x000000c8   Code   RO          986    i.UART_AdvFeatureConfig  stm32l4xx_hal_uart.o
    0x08001dd0   0x00000058   Code   RO          987    i.UART_CheckIdleState  stm32l4xx_hal_uart.o
    0x08001e28   0x00000014   Code   RO          988    i.UART_DMAAbortOnError  stm32l4xx_hal_uart.o
    0x08001e3c   0x00000048   Code   RO          989    i.UART_DMAError     stm32l4xx_hal_uart.o
    0x08001e84   0x0000003c   Code   RO          990    i.UART_DMAReceiveCplt  stm32l4xx_hal_uart.o
    0x08001ec0   0x0000000a   Code   RO          992    i.UART_DMARxHalfCplt  stm32l4xx_hal_uart.o
    0x08001eca   0x0000001e   Code   RO          998    i.UART_EndRxTransfer  stm32l4xx_hal_uart.o
    0x08001ee8   0x00000010   Code   RO          999    i.UART_EndTxTransfer  stm32l4xx_hal_uart.o
    0x08001ef8   0x00000278   Code   RO         1002    i.UART_SetConfig    stm32l4xx_hal_uart.o
    0x08002170   0x00000060   Code   RO         1005    i.UART_WaitOnFlagUntilTimeout  stm32l4xx_hal_uart.o
    0x080021d0   0x0000000c   Code   RO          421    i.USART2_IRQHandler  stm32l4xx_it.o
    0x080021dc   0x00000002   Code   RO          422    i.UsageFault_Handler  stm32l4xx_it.o
    0x080021de   0x00000002   PAD
    0x080021e0   0x00000020   Code   RO         3720    i.__0printf$3       mc_w.l(printf3.o)
    0x08002200   0x00000020   Code   RO         3128    i.__NVIC_SetPriority  stm32l4xx_hal_cortex.o
    0x08002220   0x0000000e   Code   RO         3931    i.__scatterload_copy  mc_w.l(handlers.o)
    0x0800222e   0x00000002   Code   RO         3932    i.__scatterload_null  mc_w.l(handlers.o)
    0x08002230   0x0000000e   Code   RO         3933    i.__scatterload_zeroinit  mc_w.l(handlers.o)
    0x0800223e   0x00000002   PAD
    0x08002240   0x000001b8   Code   RO         3727    i._printf_core      mc_w.l(printf3.o)
    0x080023f8   0x00000016   Code   RO         3355    i.cursor_save       cursor.o
    0x0800240e   0x00000002   PAD
    0x08002410   0x00000018   Code   RO         3356    i.cursor_set        cursor.o
    0x08002428   0x00000012   Code   RO         3357    i.cursor_update     cursor.o
    0x0800243a   0x00000002   PAD
    0x0800243c   0x00000014   Code   RO         3439    i.esc_seq_clear     esq_seq.o
    0x08002450   0x0000014c   Code   RO         3440    i.esc_seq_search    esq_seq.o
    0x0800259c   0x00000004   Code   RO           17    i.fputc             retarget.o
    0x080025a0   0x00000018   Code   RO         3475    i.label_draw        radio_button.o
    0x080025b8   0x00000040   Code   RO          190    i.main              main.o
    0x080025f8   0x00000024   Code   RO         3621    i.puts              mc_w.l(puts.o)
    0x0800261c   0x0000001c   Code   RO         3476    i.radbtn_check      radio_button.o
    0x08002638   0x0000000e   Code   RO         3478    i.radbtn_toggle     radio_button.o
    0x08002646   0x00000002   PAD
    0x08002648   0x00000024   Code   RO         3479    i.radbtn_update     radio_button.o
    0x0800266c   0x00000018   Code   RO           18    i.sendchar          retarget.o
    0x08002684   0x00000064   Code   RO         3538    i.terminal_basement  terminal_graphics.o
    0x080026e8   0x0000003c   Code   RO         3539    i.terminal_body     terminal_graphics.o
    0x08002724   0x0000004c   Code   RO         3540    i.terminal_callback  terminal_graphics.o
    0x08002770   0x00000138   Code   RO         3541    i.terminal_cursor   terminal_graphics.o
    0x080028a8   0x00000038   Code   RO         3542    i.terminal_frame    terminal_graphics.o
    0x080028e0   0x0000002c   Code   RO         3543    i.terminal_header   terminal_graphics.o
    0x0800290c   0x000000b4   Code   RO         3544    i.terminal_init     terminal_graphics.o
    0x080029c0   0x000000a4   Code   RO         3545    i.terminal_update   terminal_graphics.o
    0x08002a64   0x00000040   Data   RO         3319    .constdata          system_stm32l4xx.o
    0x08002aa4   0x00000008   Data   RO         3320    .constdata          system_stm32l4xx.o
    0x08002aac   0x00000004   Data   RO         3403    .constdata          esc_codes.o
    0x08002ab0   0x00000004   Data   RO         3404    .constdata          esc_codes.o
    0x08002ab4   0x00000004   Data   RO         3405    .constdata          esc_codes.o
    0x08002ab8   0x00000004   Data   RO         3406    .constdata          esc_codes.o
    0x08002abc   0x00000006   Data   RO         3407    .constdata          esc_codes.o
    0x08002ac2   0x00000006   Data   RO         3408    .constdata          esc_codes.o
    0x08002ac8   0x00000006   Data   RO         3409    .constdata          esc_codes.o
    0x08002ace   0x00000006   Data   RO         3410    .constdata          esc_codes.o
    0x08002ad4   0x00000006   Data   RO         3411    .constdata          esc_codes.o
    0x08002ada   0x00000006   Data   RO         3412    .constdata          esc_codes.o
    0x08002ae0   0x00000006   Data   RO         3413    .constdata          esc_codes.o
    0x08002ae6   0x00000006   Data   RO         3414    .constdata          esc_codes.o
    0x08002aec   0x00000005   Data   RO         3415    .constdata          esc_codes.o
    0x08002af1   0x00000003   PAD
    0x08002af4   0x00000615   Data   RO         3546    .conststring        terminal_graphics.o
    0x08003109   0x00000003   PAD
    0x0800310c   0x00000020   Data   RO         3929    Region$$Table       anon$$obj.o


    Execution Region RW_IRAM1 (Base: 0x20000000, Size: 0x00000538, Max: 0x00020000, ABSOLUTE)

    Base Addr    Size         Type   Attr      Idx    E Section Name        Object

    0x20000000   0x00000004   Data   RW           19    .data               retarget.o
    0x20000004   0x00000002   Data   RW          355    .data               usart.o
    0x20000006   0x00000002   PAD
    0x20000008   0x0000000c   Data   RW         1404    .data               stm32l4xx_hal.o
    0x20000014   0x00000004   Data   RW         3321    .data               system_stm32l4xx.o
    0x20000018   0x00000004   Data   RW         3358    .data               cursor.o
    0x2000001c   0x00000008   Data   RW         3441    .data               esq_seq.o
    0x20000024   0x00000003   Data   RW         3481    .data               radio_button.o
    0x20000027   0x00000003   Data   RW         3482    .data               radio_button.o
    0x2000002a   0x00000003   Data   RW         3483    .data               radio_button.o
    0x2000002d   0x00000003   Data   RW         3484    .data               radio_button.o
    0x20000030   0x00000003   Data   RW         3485    .data               radio_button.o
    0x20000033   0x00000001   Data   RW         3547    .data               terminal_graphics.o
    0x20000034   0x00000001   Data   RW         3549    .data               terminal_graphics.o
    0x20000035   0x00000003   PAD
    0x20000038   0x00000024   Zero   RW          309    .bss                rtc.o
    0x2000005c   0x000000c8   Zero   RW          354    .bss                usart.o
    0x20000124   0x0000000e   Zero   RW         3480    .bss                radio_button.o
    0x20000132   0x00000006   PAD
    0x20000138   0x00000400   Zero   RW            1    STACK               startup_stm32l452xx.o


==============================================================================

Image component sizes


      Code (inc. data)   RO Data    RW Data    ZI Data      Debug   Object Name

        64         14          0          4          0       2702   cursor.o
        44          4          0          0          0        794   dma.o
         0          0         69          0          0        970   esc_codes.o
       352         66          0          8          0       2714   esq_seq.o
       204         18          0          0          0       1003   gpio.o
       188         16          0          0          0       2036   main.o
       102         16          0         15         14       4053   radio_button.o
        28          6          0          4          0     693648   retarget.o
        88         20          0          0         36       1495   rtc.o
        36          8        404          0       1024        856   startup_stm32l452xx.o
       176         28          0         12          0       4417   stm32l4xx_hal.o
       198         14          0          0          0      33971   stm32l4xx_hal_cortex.o
       614         14          0          0          0       4490   stm32l4xx_hal_dma.o
       402         28          0          0          0       2444   stm32l4xx_hal_gpio.o
        44          6          0          0          0        866   stm32l4xx_hal_msp.o
       120         20          0          0          0       1390   stm32l4xx_hal_pwr_ex.o
      1964         96          0          0          0       7028   stm32l4xx_hal_rcc.o
      1088         30          0          0          0       3188   stm32l4xx_hal_rcc_ex.o
       368         12          0          0          0       3611   stm32l4xx_hal_rtc.o
      1988         86          0          0          0      12876   stm32l4xx_hal_uart.o
         2          0          0          0          0       1040   stm32l4xx_hal_uart_ex.o
        98         42          0          0          0       5245   stm32l4xx_it.o
        68         12         72          4          0       1269   system_stm32l4xx.o
       992        376       1557          2          0      35907   terminal_graphics.o
       332         52          0          2        200       3505   usart.o

    ----------------------------------------------------------------------
      9584        984       2140         56       1280     831518   Object Totals
         0          0         32          0          0          0   (incl. Generated)
        24          0          6          5          6          0   (incl. Padding)

    ----------------------------------------------------------------------

      Code (inc. data)   RO Data    RW Data    ZI Data      Debug   Library Member Name

         0          0          0          0          0          0   entry.o
         0          0          0          0          0          0   entry10a.o
         0          0          0          0          0          0   entry11a.o
         8          4          0          0          0          0   entry2.o
         4          0          0          0          0          0   entry5.o
         0          0          0          0          0          0   entry7b.o
         0          0          0          0          0          0   entry8b.o
         8          4          0          0          0          0   entry9a.o
        30          0          0          0          0          0   handlers.o
        36          8          0          0          0         68   init.o
        30          0          0          0          0         68   llshl.o
        32          0          0          0          0         68   llushr.o
        36          0          0          0          0        108   memseta.o
       472         14          0          0          0        184   printf3.o
        36          6          0          0          0         80   puts.o
        28          0          0          0          0         76   strcmp.o
        44          0          0          0          0         80   uidiv.o
        98          0          0          0          0         92   uldiv.o

    ----------------------------------------------------------------------
       864         36          0          0          0        824   Library Totals
         2          0          0          0          0          0   (incl. Padding)

    ----------------------------------------------------------------------

      Code (inc. data)   RO Data    RW Data    ZI Data      Debug   Library Name

       862         36          0          0          0        824   mc_w.l

    ----------------------------------------------------------------------
       864         36          0          0          0        824   Library Totals

    ----------------------------------------------------------------------

==============================================================================


      Code (inc. data)   RO Data    RW Data    ZI Data      Debug   

     10448       1020       2140         56       1280     823882   Grand Totals
     10448       1020       2140         56       1280     823882   ELF Image Totals
     10448       1020       2140         56          0          0   ROM Totals

==============================================================================

    Total RO  Size (Code + RO Data)                12588 (  12.29kB)
    Total RW  Size (RW Data + ZI Data)              1336 (   1.30kB)
    Total ROM Size (Code + RO Data + RW Data)      12644 (  12.35kB)

==============================================================================

